:1012B200E7E7E7FFFFE7E7E7FEC1C1FEFEC1C1FEC8
:1012C200C3C6CCF8F8CCC6C3FFFFFFE7E7E7E7E702
:1012D200FFFF18FFFF18FFFF84BF9F959FC4BF84C5
:1013A700EF1FAC0670011E4C600A7D027CEFDCFE6D
:0413B700DDFC80ECED
:0113BB00220F
:0212E200AD0756
:1012E400E4FB7E007480A803088006CEA2E713CE38
:1012F40013D8F8FFEDF582EF558224FF92B4D2B6ED
:0A130400C2B60BBB08DCD2B5C2B5BF
:01130E0022BC
:0513FB00C2B6C2B522DC
:10130F00AA07AF051212E2AF02A807748008800285
:10131F00C313D8FCF4F5807F017E001213A77580EC
:02132F00FF229B
:1013D000758AF5758CFFD28C308DFDC28CC28D2242
:0813EB00758901C28DC28C223C
:0813F300D2B51213D0C2B522DD
:100D1400E4F52FF530F535F536F537F538F539F5D1
:100D24003AF53BF53C1213FBC290F537F538E4F580
:100D340035F536AF36E536253AFDE5353539FC74FB
:100D4400B22DF58274123CF583E493FD7C001213FA
:100D54000F0536E53670020535C39408E535940071
:100D640040D1053CE53C7002053BD39427E53B9418
:100D7400004020E4F53BF53C7408253AF53AE435A7
:100D840039F539D3E53A9429E53994004005E4F579
:100D940039F53A0538E53870020537C394BCE537B0
:100DA4009402408A1213EBE4F537F538AE37AF38C6
:100DB400E4FCFD7BFF7AFFF9F8D3120CDE40E81265
:100DC40013F330B3FDD28C30B303308DFAC28CE40C
:100DD400F544F5437542C07541C0FFFE7D207C415A
:100DE400120FE37B807A5F791178471208008F2411
:100DF4008E238D228C21AF8CEFAD8AF52FEDF5304B
:100E0400AC2FE41209ABAB24AA23A922A82112080F
:100E140000E4FBFAF978401209091209E48E2F8FD5
:100E240030C3E5309405E52F94005002D290AE2FE4
:100E3400AF307C037DE8120C7B74082FF8E6F531A3
:100E4400AE2FAF307C037DE8120C7BAA04AB057D8A
:100E5400647C00AF03AE02120C7B74082FF8E6F535
:100E6400327D647C00AF03AE02120C7BAA04AB0596
:100E74007D0A7C00AF03AE02120C7B74082FF8E6E7
:100E8400F5337D0A7C00AF03AE02120C7B74082D8F
:100E9400F8E6F5347B007A0079317D05121194056A
:0A0EA40038E53870020537020DB082
:1013BC0011083F065B4F666D7D077F6F777C395E4A
:0313CC0079710034
:061194008B3D8A3E893FFD
:10119A00E4F540ED14F541F540E540C39408507B71
:1011AA00E540B40800504D9011B8F8282873021190
:1011BA00D00211D40211D80211DC0211E00211E8A6
:1011CA000211F00211F8D2A4800ED2A48012D2A485
:1011DA008016D2A4801AC2A4D2A3D2A28016C2A414
:1011EA00D2A3C2A2800EC2A4C2A3D2A28006C2A463
:1011FA00C2A3C2A2C3E5409541FFE49400AB3DAA55
:10120A003EA93F8F82F583120C4EF5807F647E00E3
:0B121A001213E0E4F58005400211A370
:0112250022A6
:10133100C2B600E4FEEFC4131313540124FF92B4A8
:0E134100EF25E0FFC2B600D2B6000EBE08E7F0
:01134F00227B
:10135000E4FFFEC2B600FDEF25E0FFEE33FED2B69D
:0E13600000C2B600A2B7E43342070DBD0CE98F
:01136E00225C
:10138D00E4FDFCC2B6C2B51213317F06DFFED2B644
:09139D0000C2B600121350D2B5D3
:0113A6002224
:0B13E000EF1FAC0670011E4C70F622DF
:10136F00D3EF9400EE940040147D6E7C00ED1D7061
:0D137F00011CED4C70F7EF1F70E61E80E3BF
:01138C00223E
:10080000EC4D6011E8497017ED33EC3304600DE4F2
:10081000FCFFFEFD22E933E8330470F8020A5012AF
:100820000A1B58046009E4CC2481500628500902B0
:100830000A5A284003020A57C0E0EB4A7044B980C4
:1008400006D0E0FB020A46EF4E701CBD8008EBFFAD
:10085000EAFEE9FD80EBE98DF0A4FEE5F00208E98F
:10086000E9CDF9EAFEEBFFEF89F0A4FCE5F0CE89D3
:10087000F0A42EFFE435F0CD89F0A42DFEE435F090
:100880008067EF4E7005BD80D780C3EF8BF0A4ACBE
:10089000F0EE8BF0A42CFCE435F0F8EF8AF0A42CF9
:1008A000E5F038FCE433CB8DF0A42CFCE5F03BF80C
:1008B000EE8AF0A42CFCE5F038F8E433CF89F0A4FC
:1008C0002CFCE5F038CF3400CE89F0A42FFFE5F002
:1008D0003EFEE433C98DF0A42EFEE5F039CD8AF05A
:1008E000A42FFFE5F03EFEE43DFD33D0E0FB5007D2
:1008F0000BBB000F020A5AEC2CFCEF33FFEE33FE69
:06090000ED33FD020A3296
:10090600020A5AEC5D046005E859047003020A50B5
:10091600120A1B580460F6EC4860F2EC7004FDFE07
:10092600FF22C860DB2481C85009C39860025006C4
:10093600020A579850CAF582E9294B4A7005AB82DC
:10094600020A4675F0007C1A7880C3EF9BEE9AED9A
:1009560099400DC3EF9BFFEE9AFEED99FDE842F03C
:10096600DC23ACF0D0E0FFD0E0FED0E0FDAB82208F
:10097600E7101BEB60BAEC2CFCEF33FFEE33FEED19
:1009860033FD020A32E803F830E705C0F075F000DF
:10099600EF2FFFEE33FEED33FD40B830E7C280AAFD
:1009A60075F020800E75F010800575F0087D007ECC
:1009B600007F003392D530D503120CD0EC334010B3
:1009C600EF33FFEE33FEED33FDEC33FCD5F0ED22D5
:0E09D600E5F0247EA2D513CC92E7CDCEFF2211
:1009E400EDD2E7CD33EC3392D524814006E4FFFE0B
:1009F400FDFC22FCE4CFCECDCC24E0501174FF806A
:100A0400EDC3CC13CCCD13CDCE13CECF13CF047006
:070A1400F030D5DE020CD02A
:100FE3008F408E3F8D3E8C3DE4FFFE7D807C3FAB8A
:100FF30040AA3FA93EA83D120B777009AF40AE3F10
:10100300AD3EAC3D22AF40AE3FAD3EAC3D120A65B6
:10101300FBAF44AE43AD42AC41120A65FFBF0108CA
:10102300E4FFFE7D807C3F22EF64046022EB6404D6
:10103300601DBB0127E4FFFEFDFCAB44AA43A942AC
:10104300A841120B7760084006E4FFFEFDFC227402
:10105300FFF544F543F542F5410210F1E4F545F59A
:1010630046FFFEFDFCAB40AA3FA93EA83D120B770D
:10107300504BAF44AE43AD42AC411209E48E458FB1
:1010830046AC45AD46EC1209ABC8ECC8C9EDC9CABC
:10109300EECACBEFCBAF44AE43AD42AC41120A82B2
:1010A300E4FBFAF9F8120B7770A5AF40AE3FAD3E03
:1010B300AC3D120BF08F408E3F8D3E8C3DAF40AE6A
:1010C3003FAD3EAC3D120EE2AB44AA43A942A84158
:1010D3001208001211328F448E438D428C41E54633
:1010E30030E00B120BF08F448E438D428C41AF44A2
:0710F300AE43AD42AC412207
:100A1B00E9D2E7C933E833F892D5EDD2E7CD33EC21
:070A2B0033FC5002B2D5229A
:100A3200EC30E7100FBF000C0EBE00080DBD000425
:100A42000BEB6014A2D5EB13FCED92E7FD2274FFD1
:100A5200FCFDFEFF22E480F8A2D574FF13FC7D802A
:030A6200E480EF3E
:100A6500ED33EC33601004700FED547F70057402A4
:0A0A750092E0227404220422E4221D
:100A7F00020A50E86480F8E933E83360110460F04B
:100A8F00ED33EC337009E8FCE9FDEAFEEBFF2204DD
:100A9F0060DED3EB9FEA9EE99DE8C2E78CF0C2F7D8
:100AAF0095F0400CE8CCF8E9CDF9EACEFAEBCFFBA4
:100ABF00120A1B85D0F05804700320D5B3E80470D8
:100ACF00075002B2D5020A5A92D5EC0460F7E4CC73
:100ADF00C0E0C398F8603B94186008400DD0E0FB6D
:100AEF00020A32E4FBFAC9FC8028E830E406E4C9C4
:100AFF00FBE4CAFCE830E305E4C9CACBFCE85407C1
:100B0F006010F8C3E913F9EA13FAEB13FBEC13FCCB
:100B1F00D8F130F52FC3E49CFCEF9BFFEE9AFEED6E
:100B2F0099FDD0E0FBEF4E4D4C701222DB03020A11
:100B3F0057EC2CFCEF33FFEE33FEED33FDED30E7DA
:100B4F00EB020A32EF2BFFEE3AFEED39FDD0E0FB60
:100B5F0050130BBB0003020A5AED13FDEE13FEEF09
:080B6F0013FFEC13FC020A3233
:100B770074F8CC6480CCC86480C8F58204604FC325
:100B8700EB9FF5F0EA9E42F0E99D42F0E89C45F0C4
:100B9700603C501DE5825FFFE582D313CB5BCBF44E
:100BA7002B5582FB50280ABA002409B90020088077
:100BB7001DE5825BFBE582D313CF5FCFF4C3132F11
:100BC7005582FF50090EBE00050DBD00010CC3EB99
:100BD7009FF5F0EA9E42F0E99D42F0E89C45F060FF
:090BE70007CC4820E701B3EC2221
:100BF000ED33EC33600A047003BD8004ECB2E7FC13
:010C000022D1
:1010FA0033DA929E35B16011377FE5FE3921848952
:10110A003AAEC3FF3C1D955B3D6358473E75FDF003
:10111A003F3172183F800000C2D5020A5A020A50B3
:10112A00BD80FA50F3020A57ED33EC330460F17BC9
:10113A003B7AAA79B8783F120800ED33EC3392D59E
:10114A00247B5011A2D570DB500BED44802404504F
:10115A0004A2D580CEEFFBEEFAEDF9ECF81209E421
:10116A00EFF582F404FC1209B0120A86C0829010CC
:10117A00FA7409120C10ED33CC33D0F092D525F065
:0A118A00A2D57001C313CC13FD229F
:100EAE003E9248DA3ECCCCCD3F2AAAAB40000000A1
:100EBE003F8000003F9837F03FB504F33FD744FC26
:100ECE003E3172173EB172173F0515913EDE5BD96A
:100EDE00D2008002C200EDD2E7F8CD33EC330470BD
:100EEE000BBD800592D5020A5A020A5040FBD3145C
:100EFE0060F2F5F07C3FEE7A00C39496C8948B4076
:100F0E00230AC89469C8941A401A0AC89468C894E7
:100F1E001F40110AC8945AC89425400805F07A005B
:100F2E00CDC2E7CDC0F08C478D488E498F4AEA235B
:100F3E0023C0E024BEF582E4340EF583120D0412B4
:100F4E000A86ECC0E0EDC0E0EEC0E0EFC0E0120CAF
:100F5E00F4A847A948AA49AB4A120A82D0E0FBD0AE
:100F6E00E0FAD0E0F9D0E0B2E7F81209098C478D2B
:100F7E00488E498F4A900EAE7403120C01A847A9F1
:100F8E0048AA49AB4A120800D0E0600F24CAF58285
:100F9E00E4340EF583120D04120A868C478D488EAA
:100FAE00498F4AD0E0C3947FFDE49400FC1209AB54
:100FBE007B187A727931783F120800A847A948AA9F
:100FCE0049AB4A120A8630000B7BD97A5B79DE7800
:050FDE003E1208002294
:100C0100C0E0EFFBEEFAEDF9ECF8120800D0E0F5E8
:100C1100F0EFFBEEFAEDF9ECF8120CF4A3A3A3A3A9
:100C2100E8C0E0E9C0E0EAC0E0EBC0E0C0F01208D3
:100C310000120D04A3A3A3A3120A86D0F0D0E0FBF7
:0D0C4100D0E0FAD0E0F9D0E0F8D5F0D422F0
:03000000021226C3
:0C122600787FE4F6D8FD75814A02126D55
:100C4E00BB010CE58229F582E5833AF583E022505B
:100C5E0006E92582F8E622BBFE06E92582F8E222A5
:0D0C6E00E58229F582E5833AF583E49322BF
:100C7B00BC000BBE0029EF8DF084FFADF022E4CC5D
:100C8B00F875F008EF2FFFEE33FEEC33FCEE9DEC26
:100C9B00984005FCEE9DFE0FD5F0E9E4CEFD22ED6C
:100CAB00F8F5F0EE8420D21CFEADF075F008EF2FB6
:100CBB00FFED33FD4007985006D5F0F222C398FDA7
:050CCB000FD5F0EA2244
:0E0CD000C3E49FFFE49EFEE49DFDE49CFC2235
:100CDE00EB9FF5F0EA9E42F0E99D42F0EC6480C88D
:060CEE0064809845F0222D
:100CF400E493FC740193FD740293FE740393FF2246
:100D0400E493F8740193F9740293FA740393FB2245
:10123200020D14E493A3F8E493A34003F68001F2B1
:1012420008DFF48029E493A3F85407240CC8C333BD
:10125200C4540F4420C8834004F456800146F6DF8C
:10126200E4800B01020408102040809013BCE47E4D
:10127200019360BCA3FF543F30E509541FFEE49381
:10128200A360010ECF54C025E060A840B8E493A348
:10129200FAE493A3F8E493A3C8C582C8CAC583CA73
:1012A200F0A3C8C582C8CAC583CADFE9DEE780BE2B
:0113CF00001D
:00000001FF
