:03000000021226C3
:10080000EC4D6011E8497017ED33EC3304600DE4F2
:0F081000FCFFFEFD22E933E8330470F8020A50C2
:10081F00120A1B58046009E4CC24815006285009A1
:0F082F00020A5A284003020A57C0E0EB4A7044FD
:10083E00B98006D0E0FB020A46EF4E701CBD800860
:0F084E00EBFFEAFEE9FD80EBE98DF0A4FEE5F09B
:0F085D000208E9E9CDF9EAFEEBFFEF89F0A4FC10
:10086C00E5F0CE89F0A42EFFE435F0CD89F0A42D6F
:10087C00FEE435F08067EF4E7005BD80D780C3EF86
:10088C008BF0A4ACF0EE8BF0A42CFCE435F0F8EF7C
:10089C008AF0A42CE5F038FCE433CB8DF0A42CFCCE
:1008AC00E5F03BF8EE8AF0A42CFCE5F038F8E433E4
:1008BC00CF89F0A42CFCE5F038CF3400CE89F0A41D
:1008CC002FFFE5F03EFEE433C98DF0A42EFEE5F0DB
:0F08DC0039CD8AF0A42FFFE5F03EFEE43DFD3359
:1008EB00D0E0FB50070BBB000F020A5AEC2CFCEFBD
:1008FB0033FFEE33FEED33FD020A32020A5AEC5D92
:10090B00046005E859047003020A50120A1B5804CC
:10091B0060F6EC4860F2EC7004FDFEFF22C860DB71
:0F092B002481C85009C39860025006020A5798E9
:0F093A0050CAF582E9294B4A7005AB82020A4682
:1009490075F0007C1A7880C3EF9BEE9AED99400D03
:0F095900C3EF9BFFEE9AFEED99FDE842F0DC2321
:10096800ACF0D0E0FFD0E0FED0E0FDAB8220E71095
:100978001BEB60BAEC2CFCEF33FFEE33FEED33FDDE
:10098800020A32E803F830E705C0F075F000EF2FEF
:0E099800FFEE33FEED33FD40B830E7C280AA1B
:0F09A60075F020800E75F010800575F0087D004B
:0F09B5007E007F003392D530D503120CD0EC3387
:0E09C4004010EF33FFEE33FEED33FDEC33FC5D
:1009D200D5F0ED22E5F0247EA2D513CC92E7CDCE60
:1009E200FF22EDD2E7CD33EC3392D524814006E4E9
:0F09F200FFFEFDFC22FCE4CFCECDCC24E0501163
:100A010074FF80EDC3CC13CCCD13CDCE13CECF1359
:100A1100CF0470F030D5DE020CD0E9D2E7C933E85B
:100A210033F892D5EDD2E7CD33EC33FC5002B2D599
:0E0A310022EC30E7100FBF000C0EBE00080DC7
:100A3F00BD00040BEB6014A2D5EB13FCED92E7FDA8
:100A4F002274FFFCFDFEFF22E480F8A2D574FF1391
:100A5F00FC7D80E480EFED33EC33601004700FED1C
:100A6F00547F7005740292E0227404220422E4225F
:100A7F00020A50E86480F8E933E83360110460F04B
:100A8F00ED33EC337009E8FCE9FDEAFEEBFF2204DD
:100A9F0060DED3EB9FEA9EE99DE8C2E78CF0C2F7D8
:100AAF0095F0400CE8CCF8E9CDF9EACEFAEBCFFBA4
:0F0ABF00120A1B85D0F05804700320D5B3E80449
:100ACE0070075002B2D5020A5A92D5EC0460F7E4D0
:100ADE00CCC0E0C398F8603B94186008400DD0E09D
:100AEE00FB020A32E4FBFAC9FC8028E830E406E493
:0F0AFE00C9FBE4CAFCE830E305E4C9CACBFCE855
:100B0D0054076010F8C3E913F9EA13FAEB13FBEC81
:100B1D0013FCD8F130F52FC3E49CFCEF9BFFEE9A4C
:100B2D00FEED99FDD0E0FBEF4E4D4C701222DB0334
:100B3D00020A57EC2CFCEF33FFEE33FEED33FDEDE7
:0F0B4D0030E7EB020A32EF2BFFEE3AFEED39FDF7
:100B5C00D0E0FB50130BBB0003020A5AED13FDEE61
:100B6C0013FEEF13FFEC13FC020A3274F8CC648012
:100B7C00CCC86480C8F58204604FC3EB9FF5F0EAE3
:0F0B8C009E42F0E99D42F0E89C45F0603C501D10
:100B9B00E5825FFFE582D313CB5BCBF42B5582FB56
:100BAB0050280ABA002409B9002008801DE5825B91
:0F0BBB00FBE582D313CF5FCFF4C3132F5582FF17
:100BCA0050090EBE00050DBD00010CC3EB9FF5F0E8
:100BDA00EA9E42F0E99D42F0E89C45F06007CC4865
:0F0BEA0020E701B3EC22ED33EC33600A04700313
:100BF900BD8004ECB2E7FC22C0E0EFFBEEFAEDF9B0
:100C0900ECF8120800D0E0F5F0EFFBEEFAEDF9ECA4
:0F0C1900F8120CF4A3A3A3A3E8C0E0E9C0E0EA3B
:100C2800C0E0EBC0E0C0F0120800120D04A3A3A3BB
:0F0C3800A3120A86D0F0D0E0FBD0E0FAD0E0F9AA
:0F0C4700D0E0F8D5F0D422BB010CE58229F5826C
:0F0C5600E5833AF583E0225006E92582F8E6228D
:100C6500BBFE06E92582F8E222E58229F582E583C5
:100C75003AF583E49322BC000BBE0029EF8DF08486
:100C8500FFADF022E4CCF875F008EF2FFFEE33FE50
:0E0C9500EC33FCEE9DEC984005FCEE9DFE0F4E
:100CA300D5F0E9E4CEFD22EDF8F5F0EE8420D21C78
:0F0CB300FEADF075F008EF2FFFED33FD40079811
:100CC2005006D5F0F222C398FD0FD5F0EA22C3E414
:100CD2009FFFE49EFEE49DFDE49CFC22EB9FF5F069
:0F0CE200EA9E42F0E99D42F0EC6480C86480987D
:100CF10045F022E493FC740193FD740293FE7403A6
:100D010093FF22E493F8740193F9740293FA740344
:100D110093FB22E4F52FF530F535F536F537F53847
:0F0D2100F539F53AF53BF53C1213FBC290F53767
:100D3000F538E4F535F536AF36E536253AFDE535D7
:100D40003539FC74B22DF58274123CF583E493FDC1
:100D50007C0012130F0536E53670020535C3940882
:0F0D6000E535940040D1053CE53C7002053BD3DE
:0F0D6F009427E53B94004020E4F53BF53C7408E5
:100D7E00253AF53AE43539F539D3E53A9429E5398A
:0F0D8E0094004005E4F539F53A0538E538700270
:0F0D9D000537C394BCE5379402408A1213EBE488
:100DAC00F537F538AE37AF38E4FCFD7BFF7AFFF949
:0F0DBC00F8D3120CDE40E81213F330B3FDD28CE3
:100DCB0030B303308DFAC28CE4F544F5437542C061
:100DDB007541C0FFFE7D207C41120FE37B807A5F63
:0F0DEB00791178471208008F248E238D228C21D6
:100DFA00AF8CEFAD8AF52FEDF530AC2FE41209ABCD
:0F0E0A00AB24AA23A922A821120800E4FBFAF9BD
:0F0E190078401209091209E48E2F8F30C3E5309B
:100E28009405E52F94005002D290AE2FAF307C038A
:100E38007DE8120C7B74082FF8E6F531AE2FAF3041
:0F0E48007C037DE8120C7BAA04AB057D647C0063
:100E5700AF03AE02120C7B74082FF8E6F5327D64FF
:0F0E67007C00AF03AE02120C7BAA04AB057D0A20
:100E76007C00AF03AE02120C7B74082FF8E6F53344
:100E86007D0A7C00AF03AE02120C7B74082DF8E6D7
:0F0E9600F5347B007A0079317D0512119405380F
:100EA500E53870020537020DB03E9248DA3ECCCCEB
:100EB500CD3F2AAAAB400000003F8000003F983795
:100EC500F03FB504F33FD744FC3E3172173EB17293
:100ED500173F0515913EDE5BD9D2008002C200EDB9
:0F0EE500D2E7F8CD33EC3304700BBD800592D506
:100EF400020A5A020A5040FBD31460F2F5F07C3F18
:100F0400EE7A00C39496C8948B40230AC89469C8A7
:0F0F1400941A401A0AC89468C8941F40110AC85A
:0F0F2300945AC89425400805F07A00CDC2E7CD56
:0F0F3200C0F08C478D488E498F4AEA2323C0E0D8
:100F410024BEF582E4340EF583120D04120A86ECF8
:100F5100C0E0EDC0E0EEC0E0EFC0E0120CF4A84745
:0F0F6100A948AA49AB4A120A82D0E0FBD0E0FAB5
:0F0F7000D0E0F9D0E0B2E7F81209098C478D48BC
:100F7F008E498F4A900EAE7403120C01A847A948F0
:100F8F00AA49AB4A120800D0E0600F24CAF582E4E8
:100F9F00340EF583120D04120A868C478D488E4944
:0F0FAF008F4AD0E0C3947FFDE49400FC1209AB9D
:0F0FBE007B187A727931783F120800A847A9484A
:100FCD00AA49AB4A120A8630000B7BD97A5B79DECF
:100FDD00783E120800228F408E3F8D3E8C3DE4FFFF
:100FED00FE7D807C3FAB40AA3FA93EA83D120B770A
:0F0FFD007009AF40AE3FAD3EAC3D22AF40AE3FBE
:10100C00AD3EAC3D120A65FBAF44AE43AD42AC41C4
:10101C00120A65FFBF0108E4FFFE7D807C3F22EFD2
:10102C0064046022EB6404601DBB0127E4FFFEFD39
:10103C00FCAB44AA43A942A841120B7760084006B6
:10104C00E4FFFEFDFC2274FFF544F543F542F54147
:10105C000210F1E4F545F546FFFEFDFCAB40AA3F5E
:0F106C00A93EA83D120B77504BAF44AE43AD42A7
:0E107B00AC411209E48E458F46AC45AD46EC03
:0F1089001209ABC8ECC8C9EDC9CAEECACBEFCB90
:10109800AF44AE43AD42AC41120A82E4FBFAF9F820
:1010A800120B7770A5AF40AE3FAD3EAC3D120BF0D2
:1010B8008F408E3F8D3E8C3DAF40AE3FAD3EAC3D48
:0E10C800120EE2AB44AA43A942A8411208004E
:1010D6001211328F448E438D428C41E54630E00B2F
:0F10E600120BF08F448E438D428C41AF44AE43CA
:1010F500AD42AC412233DA929E35B16011377FE5BE
:0E110500FE392184893AAEC3FF3C1D955B3D47
:0F1113006358473E75FDF03F3172183F80000072
:10112200C2D5020A5A020A50BD80FA50F3020A5787
:0F113200ED33EC330460F17B3B7AAA79B8783F58
:0F114100120800ED33EC3392D5247B5011A2D568
:1011500070DB500BED448024045004A2D580CEEF08
:10116000FBEEFAEDF9ECF81209E4EFF582F404FC79
:101170001209B0120A86C0829010FA7409120C107B
:10118000ED33CC33D0F092D525F0A2D57001C31346
:0F119000CC13FD228B3D8A3E893FE4F540ED14E0
:10119F00F541F540E540C39408507BE540B40800A5
:0F11AF00504D9011B8F82828730211D00211D4B6
:0F11BE000211D80211DC0211E00211E80211F057
:0F11CD000211F8D2A4800ED2A48012D2A48016F0
:1011DC00D2A4801AC2A4D2A3D2A28016C2A4D2A333
:1011EC00C2A2800EC2A4C2A3D2A28006C2A4C2A371
:0F11FC00C2A2C3E5409541FFE49400AB3DAA3E7B
:0F120B00A93F8F82F583120C4EF5807F647E0021
:10121A001213E0E4F58005400211A322787FE4F678
:10122A00D8FD75814A02126D020D14E493A3F8E405
:10123A0093A34003F68001F208DFF48029E493A324
:0F124A00F85407240CC8C333C4540F4420C8837E
:101259004004F456800146F6DFE4800B01020408DD
:0F126900102040809013BCE47E019360BCA3FF73
:0F127800543F30E509541FFEE493A360010ECFED
:1012870054C025E060A840B8E493A3FAE493A3F818
:10129700E493A3C8C582C8CAC583CAF0A3C8C582D8
:1012A700C8CAC583CADFE9DEE780BEE7E7E7FFFF15
:1012B700E7E7E7FEC1C1FEFEC1C1FEC3C6CCF8F831
:1012C700CCC6C3FFFFFFE7E7E7E7E7FFFF18FFFF2E
:0F12D70018FFFF84BF9F959FC4BF84AD07E4FB42
:0F12E6007E007480A803088006CEA2E713CE1303
:0F12F500D8F8FFEDF582EF558224FF92B4D2B600
:0F130400C2B60BBB08DCD2B5C2B522AA07AF0533
:101313001212E2AF02A8077480088002C313D8FC3C
:10132300F4F5807F017E001213A77580FF22C2B6F9
:0F13330000E4FEEFC4131313540124FF92B4EF30
:1013420025E0FFC2B600D2B6000EBE08E722E4FFD7
:0F135200FEC2B600FDEF25E0FFEE33FED2B6007F
:10136100C2B600A2B7E43342070DBD0CE922D3EFA8
:101371009400EE940040147D6E7C00ED1D70011C04
:0F138100ED4C70F7EF1F70E61E80E322E4FDFCD9
:10139000C2B6C2B51213317F06DFFED2B600C2B6A6
:0F13A00000121350D2B522EF1FAC0670011E4C85
:1013AF00600A7D027CEFDCFEDDFC80EC2211083F41
:1013BF00065B4F666D7D077F6F777C395E797100B5
:1013CF0000758AF5758CFFD28C308DFDC28CC28D65
:0F13DF0022EF1FAC0670011E4C70F622758901BB
:0F13EE00C28DC28C22D2B51213D0C2B522C2B6A4
:0313FD00C2B52254
:00000001FF
